:080000000C9480000C94000038
:100008000C9400000C9400000C9400000C94000068
:100018000C9400000C9400000C9400000C94000058
:100028000C9400000C9400000C9400000C94000048
:100038000C9400000C9400000C9400000C94000038
:100048000C9400000C9400000C94000061352332DD
:100058003132336134353662373839632A302364B4
:100068000000312E4C454420202020203C3D003209
:100078002E42757A7A657200312E4C454400322E34
:1000880042757A7A657220203C3D00332E52656CA9
:1000980061792020203C3D0070617373776F726432
:1000A8002057726F6E67202100656E74657220702C
:1000B800617373776F7264203A002020202020201B
:1000C8004C454400202020202042757A7A65720031
:1000D800202020202052656C6179000080C0040037
:1000E8006502540010006A0258000100050068000B
:1000F80002008102E4000000F894EE27ECBBF1E076
:10010800FBBFEBBFE5BFF8E1F1BDE1BD8DE0A2E0CB
:10011800BB27ED938A95E9F780E098E0A0E6ED9398
:100128000197E9F7E6EEF0E085919591009761F087
:10013800A591B59105901590BF01F00105900D921C
:100148000197E1F7FB01F0CFEFE5EDBFE8E0EEBF87
:10015800C0E6D2E00C94C3020E94B103E1E0E515C9
:1001680011F44A921AC0E2E0E51519F40E94B603A8
:1001780014C0E3E0E51531F40E94B6030E94500371
:100188006A920BC0E4E0E51551F40E94B6030E94A0
:1001980050036A920E9450039A920E945003089555
:1001A800E0917B02E03089F00E94BA03A0917B02C3
:1001B8000E94C00311F0E0E006C0E2B7EF3F29F467
:1001C800E0917B02EF5FE0937B02E0917C02E030FC
:1001D80089F00E94BA03A0917C020E94C00311F02A
:1001E800E0E006C0E2B7EF3F29F4E0917C02EF5F60
:1001F800E0937C02E0917D02E03089F00E94BA032E
:10020800A0917D020E94C00311F0E0E006C0E2B7B1
:10021800EF3F29F4E0917D02EF5FE0937D02E091EA
:100228008002E03099F00E94BA03A0918002E4E0D5
:100238000E940A04E02111F0E0E006C0E2B7EF3FB7
:1002480029F4E0918002EF5FE09380020895E09145
:100258006002E03049F40E944303EAE6F0E00E94BD
:10026800C503E7E7F0E015C0A0916002A13049F4AA
:100278000E944303E0E8F0E00E94C503E6E8F0E0EE
:1002880008C0A0916002A23041F40E94C903E3E9CA
:10029800F0E0FA93EA930E9471030895839BBFC02C
:1002A800E0E08499E1E08E2EE0E08599E1E0BE2E61
:1002B800E0E08699E1E0AE2EE0E08799E1E0DE2E0D
:1002C800E82DEE0FEE0FEE0FAE2FEB2DEE0FEE0F2B
:1002D800EA2BAE2FEA2DEE0FEA2BED29CE2E60DFAA
:1002E800552061F4E1E0E0937B02E0E0E2BF0E9488
:1002F800CE034080E1E05E2E2FDF91C0E1E0E515FE
:10030800F9F4E0937C020E94CE037080E2E05E2E56
:10031800E72DA42D0E940A040E2EA0917B02E0E096
:100328000E940A040E22E72DA42D0E940F04E02942
:1003380021F012DFE0E0E2BF02C0E1E05E2E6FC014
:10034800E2E0E51501F5E1E0E0937D020E94CE03CD
:100358006080E3E05E2EE62DA72D0E940A040E2E93
:10036800A0917C02E0E00E940A040E22E72DA62D4F
:100378000E940F04E02921F0EFDEE0E0E2BF02C0B6
:10038800E2E05E2E4CC0E3E0E51511F00C94130298
:100398000E94CE039080E4E05E2EE92DA62D0E94F7
:1003A8000A040E2EA0917D02E0E00E940A040E22AB
:1003B800E92DA62D0E940F04E02979F160D1E09182
:1003C8006502A42D0E940A040E2EE0916602A72D54
:1003D8000E940A040E22E0916702A62D0E940A04D8
:1003E8000E22E0916802A92D0E940A04E02129F05A
:1003F800E1E0E09361022BDF0FC0E0EAF0E00E9449
:10040800D303E8EEF3E00E94D6030E94C903E1EBB0
:10041800F0E00E94D303552402C0E3E05E2E089565
:100428002ED1A0916202A13019F4E2ECF0E00DC0E7
:10043800A0916302A13019F4ECECF0E006C0A091A1
:100448006402A13029F4E8EDF0E0FA93EA9345D18B
:100458000895E0916202E03041F4A89AD99ADA9AB4
:10046800E1E0E0936202DCDF02C0F1DE9FD1089593
:10047800E0916302E03061F4A99AD99ADA9AE1E04E
:10048800E0936302E0938002E0E0E2BFC9DF02C0CC
:10049800DEDE93D10895E0916402E03061F4C0DFBC
:1004A800DD9AD99AD89ADB9ADC9ADE9AE1E0E09351
:1004B8006402B6DF02C0CBDE87D10895E091600206
:1004C800E03011F4C6DF0BC0A0916002A13011F436
:1004D800CFDF05C0A0916002A23009F4DCDF0895E7
:1004E80065D16BD171D108955BDEA0918002E0E007
:1004F8000E940A040E2EA0916302E1E00E940A0401
:10050800E02109F0A998809903C0E1E0E0937E0218
:10051800A0E08099A1E0E1E00E940A040E2EA091DB
:100528007E02E1E00E940A04E02189F0E091600285
:10053800EF5FE0936002E0E0E0937E02A09160024A
:10054800A33011F4E0936002CBDF81DE05C0819B0C
:1005580003C0E1E0E0937F02A0917F02E1E00E9406
:100568000A040E2EA0E08199A1E0E0E00E940A04AE
:10057800E02121F0E0E0E0937F02A0DF0895E0E0D1
:10058800EBBBEFEFEABBE0E0E8BBE7BBE5BBEFEFB7
:10059800E4BBE0E0E2BBE1BBE5E0E3BFE0E0E2BFF3
:1005A800ECBFEFBDEEBDEDBDECBDE7BDE6BDEBBDFF
:1005B800EABDE9BDE8BDE2BDE5BDE4BDE3BDE5BF1B
:1005C800E4BFE9BFEAB9E0E8E8B9E0E0E0BFE6B9CE
:1005D800EDB9E6BFE0E1EA9391D0E0E0EA93EA936F
:1005E8003DD0E1EBF0E0DBD0E0916102E03011F4C6
:1005F80055DE01C079DFF8CFFFCFE881E07111F057
:10060800C49A01C0C498E881E07211F0C59A01C08B
:10061800C598E881E07411F0C69A01C0C698E881CF
:10062800E07811F0C79A01C0C79881E08A95F1F780
:10063800C29A82E08A95F1F7C29882E08A95F1F72A
:100648008AC0E881EA93D9DFE881E295E883E88106
:10065800EA93D3DF81E18A95F1F77DC0E881F0E084
:10066800EF57FD4FE081A981EA0FEA93EADFE981BC
:10067800E0938502E881E093860222960895E2E0FD
:10068800ADD0ECE0EA93DDDFE1E0A8D0E0E0E09374
:100698008602E09385020895A881AA3031F0E0919E
:1006A8008702A0918502AE1768F0E0E0EA93E09136
:1006B8008602EF5FE0938602EA93D0DFA881AA3032
:1006C80009F449C0E0918502EF5FE0938502C09A82
:1006D800E881EA93B6DFC0983EC01A93E981FA81AF
:1006E8003196E983FA833197E4911E2FE03019F0AF
:1006F8001A93D2DFF3CF188123960895BC9ABD9A36
:10070800BE9ABF9ABA9AB89AB99AC298C098C1982C
:10071800E881E0938702E058E0938302E881E0549F
:10072800E0938402E4E1F0E03DD05DD05CD05BD0A2
:10073800E0E2EA9362DF81E28A95F1F7E8E2EA9380
:1007480080DFE4E0EA937DDFE5E8EA937ADFE6E03C
:10075800EA9377DF94DF21960895E0E0EA93E1E0F9
:10076800EA937CCF4A9298DF7A920895E2B7AFEF86
:100778000E940A040E2E0895E2E00E940A04E02175
:100788000895FA93EA93A9DFE8CF79DFE0E0EA93E6
:10079800EA9364CFEC2DF0E0E659FD4F0895FA9303
:1007A800EA939BCFFA93EA930C94FE03A898D998FE
:1007B800DA98E0E0E09362020895A998D998DA9867
:1007C800E0E0E09363020895DD98D998D898DB9823
:1007D800DC98DE98E0E0E09364020895EA9331DF64
:1007E800E3E0F0E0DFCFE0E3EA9307DF81E28A9518
:1007F800F1F70895E991F991309639F08AEF90E090
:100808000197F1F7A8953197C9F70895EA17E1E03C
:1008180009F0EE270895EA17E1E009F4EE270895B4
:00000001FF
